{
  "contractName": "Auction",
  "abi": [
    {
      "inputs": [],
      "stateMutability": "nonpayable",
      "type": "constructor"
    },
    {
      "inputs": [],
      "name": "highestBid",
      "outputs": [
        {
          "internalType": "uint256",
          "name": "",
          "type": "uint256"
        }
      ],
      "stateMutability": "view",
      "type": "function",
      "constant": true
    },
    {
      "inputs": [],
      "name": "highestBidder",
      "outputs": [
        {
          "internalType": "address",
          "name": "",
          "type": "address"
        }
      ],
      "stateMutability": "view",
      "type": "function",
      "constant": true
    },
    {
      "inputs": [
        {
          "internalType": "address",
          "name": "",
          "type": "address"
        }
      ],
      "name": "userBalances",
      "outputs": [
        {
          "internalType": "uint256",
          "name": "",
          "type": "uint256"
        }
      ],
      "stateMutability": "view",
      "type": "function",
      "constant": true
    },
    {
      "stateMutability": "payable",
      "type": "receive",
      "payable": true
    },
    {
      "inputs": [],
      "name": "bid",
      "outputs": [],
      "stateMutability": "payable",
      "type": "function",
      "payable": true
    },
    {
      "inputs": [],
      "name": "withdraw",
      "outputs": [
        {
          "internalType": "bool",
          "name": "",
          "type": "bool"
        }
      ],
      "stateMutability": "payable",
      "type": "function",
      "payable": true
    },
    {
      "inputs": [],
      "name": "getContractBalance",
      "outputs": [
        {
          "internalType": "uint256",
          "name": "",
          "type": "uint256"
        }
      ],
      "stateMutability": "view",
      "type": "function",
      "constant": true
    },
    {
      "inputs": [
        {
          "internalType": "address",
          "name": "_bidder",
          "type": "address"
        }
      ],
      "name": "getAccountBalance",
      "outputs": [
        {
          "internalType": "uint256",
          "name": "",
          "type": "uint256"
        }
      ],
      "stateMutability": "view",
      "type": "function",
      "constant": true
    },
    {
      "inputs": [],
      "name": "isTheHighestBidder",
      "outputs": [
        {
          "internalType": "bool",
          "name": "",
          "type": "bool"
        }
      ],
      "stateMutability": "view",
      "type": "function",
      "constant": true
    }
  ],
  "bytecode": "0x608060405234801561001057600080fd5b50336000806101000a81548173ffffffffffffffffffffffffffffffffffffffff021916908373ffffffffffffffffffffffffffffffffffffffff1602179055506000600181905550610811806100686000396000f3fe60806040526004361061007f5760003560e01c806391f901571161004e57806391f901571461011b57806393423e9c14610146578063d57bde7914610183578063eb0ae279146101ae57610086565b80631998aeef1461008b57806326224c64146100955780633ccfd60b146100d25780636f9fb98a146100f057610086565b3661008657005b600080fd5b6100936101d9565b005b3480156100a157600080fd5b506100bc60048036038101906100b7919061055a565b6102d4565b6040516100c991906106af565b60405180910390f35b6100da6102ec565b6040516100e79190610634565b60405180910390f35b3480156100fc57600080fd5b5061010561048a565b60405161011291906106af565b60405180910390f35b34801561012757600080fd5b50610130610492565b60405161013d9190610619565b60405180910390f35b34801561015257600080fd5b5061016d6004803603810190610168919061055a565b6104b6565b60405161017a91906106af565b60405180910390f35b34801561018f57600080fd5b506101986104d7565b6040516101a591906106af565b60405180910390f35b3480156101ba57600080fd5b506101c36104dd565b6040516101d09190610634565b60405180910390f35b6000349050600154811015610223576040517f08c379a000000000000000000000000000000000000000000000000000000000815260040161021a9061068f565b60405180910390fd5b600154600260008060009054906101000a900473ffffffffffffffffffffffffffffffffffffffff1673ffffffffffffffffffffffffffffffffffffffff1673ffffffffffffffffffffffffffffffffffffffff16815260200190815260200160002081905550336000806101000a81548173ffffffffffffffffffffffffffffffffffffffff021916908373ffffffffffffffffffffffffffffffffffffffff1602179055503460018190555050565b60026020528060005260406000206000915090505481565b60008060008060009054906101000a900473ffffffffffffffffffffffffffffffffffffffff1673ffffffffffffffffffffffffffffffffffffffff163373ffffffffffffffffffffffffffffffffffffffff161415610381576040517f08c379a00000000000000000000000000000000000000000000000000000000081526004016103789061066f565b60405180910390fd5b600260003373ffffffffffffffffffffffffffffffffffffffff1673ffffffffffffffffffffffffffffffffffffffff16815260200190815260200160002054915060008211610406576040517f08c379a00000000000000000000000000000000000000000000000000000000081526004016103fd9061064f565b60405180910390fd5b3373ffffffffffffffffffffffffffffffffffffffff166108fc839081150290604051600060405180830381858888f1935050505090506000600260003373ffffffffffffffffffffffffffffffffffffffff1673ffffffffffffffffffffffffffffffffffffffff16815260200190815260200160002081905550809250505090565b600047905090565b60008054906101000a900473ffffffffffffffffffffffffffffffffffffffff1681565b60008173ffffffffffffffffffffffffffffffffffffffff16319050919050565b60015481565b60008060009054906101000a900473ffffffffffffffffffffffffffffffffffffffff1673ffffffffffffffffffffffffffffffffffffffff163373ffffffffffffffffffffffffffffffffffffffff16141561053d5760019050610542565b600090505b90565b600081359050610554816107c4565b92915050565b60006020828403121561056c57600080fd5b600061057a84828501610545565b91505092915050565b61058c816106db565b82525050565b61059b816106ed565b82525050565b60006105ae602d836106ca565b91506105b982610723565b604082019050919050565b60006105d1601e836106ca565b91506105dc82610772565b602082019050919050565b60006105f4601c836106ca565b91506105ff8261079b565b602082019050919050565b61061381610719565b82525050565b600060208201905061062e6000830184610583565b92915050565b60006020820190506106496000830184610592565b92915050565b60006020820190508181036000830152610668816105a1565b9050919050565b60006020820190508181036000830152610688816105c4565b9050919050565b600060208201905081810360008301526106a8816105e7565b9050919050565b60006020820190506106c4600083018461060a565b92915050565b600082825260208201905092915050565b60006106e6826106f9565b9050919050565b60008115159050919050565b600073ffffffffffffffffffffffffffffffffffffffff82169050919050565b6000819050919050565b7f576974686472617720616d6f756e74202073686f756c6420626520677265617460008201527f6572207468616e207a65726f2100000000000000000000000000000000000000602082015250565b7f48696768657374204269646465722063616e2774207769746864726177210000600082015250565b7f41206869676865722062696420616c7265616479206578697374732100000000600082015250565b6107cd816106db565b81146107d857600080fd5b5056fea264697066735822122067dd229db819359cacde94e1ce7b5b7fc81259fe233ea9f612f9be34724120c964736f6c63430008030033",
  "immutableReferences": {},
  "source": "// SPDX-License-Identifier: GPL-3.0\n\npragma solidity >=0.8.0; \ncontract Auction{\n    address public highestBidder; // The highest bidder's address\n    uint256 public highestBid; // The amount of the highest bid\n\n    mapping(address => uint256) public userBalances; // mapping for the amount to return\n\n    constructor()  {\n        highestBidder=msg.sender;\n        highestBid=0;\n    }\n\n    /// Bid on the auction with the value sent\n    /// together with this transaction.\n    /// The value will only be refunded if the\n    /// auction is not won.\n    \n    \n    function bid() public payable {\n        // 1. Check if the bid is greater than the current highest bid\n        // 2. Update status variable and the amount to return\n\tuint current_bid;\n\tcurrent_bid = msg.value;\n        require(current_bid >= highestBid,\"A higher bid already exists!\");\n        userBalances[highestBidder]=highestBid;\n        highestBidder=msg.sender;\n        highestBid=msg.value;\n    }\n\n    function withdraw() external payable returns(bool) {\n        // Function to withdraw the amount of bid to return\n        // 1. Check if the amount to return is greater than zero\n        // 2. Update status variable and return bid\n        uint amount;\n        /*if (amount > 0) {\n            [msg.sender] = 0;\n            if (!payable(msg.sender).send(amount)) {\n                userBalances[msg.sender] = amount;\n                return false;\n            }\n        }*/\n        bool with_res;\n        \n        require(msg.sender != highestBidder,\"Highest Bidder can't withdraw!\");\n        \n        amount = userBalances[msg.sender];\n        \n        require(amount > 0, \"Withdraw amount  should be greater than zero!\");\n       \n\t\n\t\n        with_res = payable(msg.sender).send(amount);\n        userBalances[msg.sender] = 0;\n        return with_res;\n    }\n\n    function getContractBalance() public view returns(uint){\n        return address(this).balance;\n    }\n\n    function getAccountBalance(address _bidder) public view returns(uint){\n        return address(_bidder).balance;\n    }\n\n    function isTheHighestBidder()public view returns(bool){\n        if(msg.sender == highestBidder){\n            return true;\n        }\n        return false;\n    }\n\n\n    receive() external payable {}\n}\n",
  "sourcePath": "/home/tomoynithsmanassou/Dapp/contracts/Auction.sol",
  "compiler": {
    "name": "solc",
    "version": "0.8.3+commit.8d00100c.Emscripten.clang"
  },
  "schemaVersion": "3.4.1",
  "updatedAt": "2021-05-30T16:44:58.049Z",
  "networkType": "ethereum",
  "devdoc": {
    "kind": "dev",
    "methods": {},
    "version": 1
  },
  "userdoc": {
    "kind": "user",
    "methods": {
      "bid()": {
        "notice": "Bid on the auction with the value sent together with this transaction. The value will only be refunded if the auction is not won."
      }
    },
    "version": 1
  }
}